{
  "_format": "hh-sol-artifact-1",
  "contractName": "SendMeme",
  "sourceName": "contracts/SendMeme.sol",
  "abi": [
    {
      "inputs": [
        {
          "internalType": "address payable",
          "name": "_to",
          "type": "address"
        }
      ],
      "name": "SendMoneyToWinner",
      "outputs": [],
      "stateMutability": "nonpayable",
      "type": "function"
    },
    {
      "inputs": [],
      "name": "balanceOf",
      "outputs": [
        {
          "internalType": "uint256",
          "name": "",
          "type": "uint256"
        }
      ],
      "stateMutability": "view",
      "type": "function"
    },
    {
      "inputs": [
        {
          "internalType": "uint256",
          "name": "",
          "type": "uint256"
        }
      ],
      "name": "comments",
      "outputs": [
        {
          "internalType": "uint256",
          "name": "ID",
          "type": "uint256"
        },
        {
          "internalType": "uint256",
          "name": "MemeID",
          "type": "uint256"
        },
        {
          "internalType": "address",
          "name": "ownerAddress",
          "type": "address"
        },
        {
          "internalType": "address",
          "name": "userAddress",
          "type": "address"
        },
        {
          "internalType": "string",
          "name": "Date",
          "type": "string"
        },
        {
          "internalType": "string",
          "name": "Comment",
          "type": "string"
        }
      ],
      "stateMutability": "view",
      "type": "function"
    },
    {
      "inputs": [
        {
          "internalType": "string",
          "name": "_images",
          "type": "string"
        },
        {
          "internalType": "string",
          "name": "_title",
          "type": "string"
        },
        {
          "internalType": "string",
          "name": "_date",
          "type": "string"
        }
      ],
      "name": "createMeme",
      "outputs": [],
      "stateMutability": "payable",
      "type": "function"
    },
    {
      "inputs": [],
      "name": "getComments",
      "outputs": [
        {
          "components": [
            {
              "internalType": "uint256",
              "name": "ID",
              "type": "uint256"
            },
            {
              "internalType": "uint256",
              "name": "MemeID",
              "type": "uint256"
            },
            {
              "internalType": "address",
              "name": "ownerAddress",
              "type": "address"
            },
            {
              "internalType": "address",
              "name": "userAddress",
              "type": "address"
            },
            {
              "internalType": "string",
              "name": "Date",
              "type": "string"
            },
            {
              "internalType": "string",
              "name": "Comment",
              "type": "string"
            }
          ],
          "internalType": "struct SendMeme.Comment[]",
          "name": "",
          "type": "tuple[]"
        }
      ],
      "stateMutability": "view",
      "type": "function"
    },
    {
      "inputs": [],
      "name": "getMemes",
      "outputs": [
        {
          "components": [
            {
              "internalType": "uint256",
              "name": "ID",
              "type": "uint256"
            },
            {
              "internalType": "string",
              "name": "Images",
              "type": "string"
            },
            {
              "internalType": "address",
              "name": "ownerAddress",
              "type": "address"
            },
            {
              "internalType": "string",
              "name": "LikeCount",
              "type": "string"
            },
            {
              "internalType": "string",
              "name": "Title",
              "type": "string"
            },
            {
              "internalType": "string",
              "name": "Date",
              "type": "string"
            }
          ],
          "internalType": "struct SendMeme.Meme[]",
          "name": "",
          "type": "tuple[]"
        }
      ],
      "stateMutability": "view",
      "type": "function"
    },
    {
      "inputs": [],
      "name": "getVotes",
      "outputs": [
        {
          "components": [
            {
              "internalType": "uint256",
              "name": "ID",
              "type": "uint256"
            },
            {
              "internalType": "uint256",
              "name": "MemeID",
              "type": "uint256"
            },
            {
              "internalType": "address",
              "name": "ownerAddress",
              "type": "address"
            },
            {
              "internalType": "address",
              "name": "userAddress",
              "type": "address"
            },
            {
              "internalType": "bool",
              "name": "userVote",
              "type": "bool"
            }
          ],
          "internalType": "struct SendMeme.Vote[]",
          "name": "",
          "type": "tuple[]"
        }
      ],
      "stateMutability": "view",
      "type": "function"
    },
    {
      "inputs": [
        {
          "internalType": "uint256",
          "name": "",
          "type": "uint256"
        }
      ],
      "name": "memes",
      "outputs": [
        {
          "internalType": "uint256",
          "name": "ID",
          "type": "uint256"
        },
        {
          "internalType": "string",
          "name": "Images",
          "type": "string"
        },
        {
          "internalType": "address",
          "name": "ownerAddress",
          "type": "address"
        },
        {
          "internalType": "string",
          "name": "LikeCount",
          "type": "string"
        },
        {
          "internalType": "string",
          "name": "Title",
          "type": "string"
        },
        {
          "internalType": "string",
          "name": "Date",
          "type": "string"
        }
      ],
      "stateMutability": "view",
      "type": "function"
    },
    {
      "inputs": [
        {
          "internalType": "uint256",
          "name": "_memesId",
          "type": "uint256"
        },
        {
          "internalType": "string",
          "name": "_comment",
          "type": "string"
        },
        {
          "internalType": "string",
          "name": "_date",
          "type": "string"
        },
        {
          "internalType": "address",
          "name": "_ownerAddress",
          "type": "address"
        }
      ],
      "name": "sendComment",
      "outputs": [],
      "stateMutability": "nonpayable",
      "type": "function"
    },
    {
      "inputs": [
        {
          "internalType": "uint256",
          "name": "_memesId",
          "type": "uint256"
        },
        {
          "internalType": "bool",
          "name": "_vote",
          "type": "bool"
        },
        {
          "internalType": "address",
          "name": "_ownerAddress",
          "type": "address"
        }
      ],
      "name": "sendVote",
      "outputs": [],
      "stateMutability": "nonpayable",
      "type": "function"
    },
    {
      "inputs": [
        {
          "internalType": "uint256",
          "name": "",
          "type": "uint256"
        }
      ],
      "name": "votes",
      "outputs": [
        {
          "internalType": "uint256",
          "name": "ID",
          "type": "uint256"
        },
        {
          "internalType": "uint256",
          "name": "MemeID",
          "type": "uint256"
        },
        {
          "internalType": "address",
          "name": "ownerAddress",
          "type": "address"
        },
        {
          "internalType": "address",
          "name": "userAddress",
          "type": "address"
        },
        {
          "internalType": "bool",
          "name": "userVote",
          "type": "bool"
        }
      ],
      "stateMutability": "view",
      "type": "function"
    }
  ],
  "bytecode": "0x608060405234801561001057600080fd5b5061208a806100206000396000f3fe60806040526004361061009c5760003560e01c8063722713f711610064578063722713f7146101945780638c849f3f146101bf5780638ebb4c15146101ea57806391f3410c1461022c578063e3a8dcb314610257578063e769942f146102805761009c565b80630ce264ee146100a15780630dc96015146100bd578063251886b3146100e8578063388f6064146101115780635df8133014610153575b600080fd5b6100bb60048036038101906100b691906115d8565b6102a9565b005b3480156100c957600080fd5b506100d261045d565b6040516100df9190611bcc565b60405180910390f35b3480156100f457600080fd5b5061010f600480360381019061010a91906115ab565b610597565b005b34801561011d57600080fd5b506101386004803603810190610133919061167f565b6105e1565b60405161014a96959493929190611c09565b60405180910390f35b34801561015f57600080fd5b5061017a6004803603810190610175919061167f565b61086d565b60405161018b959493929190611c86565b60405180910390f35b3480156101a057600080fd5b506101a9610900565b6040516101b69190611bee565b60405180910390f35b3480156101cb57600080fd5b506101d4610908565b6040516101e19190611baa565b60405180910390f35b3480156101f657600080fd5b50610211600480360381019061020c919061167f565b610c0f565b60405161022396959493929190611cd9565b60405180910390f35b34801561023857600080fd5b50610241610dab565b60405161024e9190611b88565b60405180910390f35b34801561026357600080fd5b5061027e600480360381019061027991906116ac565b610fee565b005b34801561028c57600080fd5b506102a760048036038101906102a291906116ff565b611185565b005b66038d7ea4c6800034146102bc57600080fd5b6102c4611339565b33816040019073ffffffffffffffffffffffffffffffffffffffff16908173ffffffffffffffffffffffffffffffffffffffff1681525050600080549050816000018181525050838160200181905250828160800181905250818160a001819052506040518060400160405280600181526020017f3000000000000000000000000000000000000000000000000000000000000000815250816060018190525060008190806001815401808255809150506001900390600052602060002090600602016000909190919091506000820151816000015560208201518160010190805190602001906103b6929190611385565b5060408201518160020160006101000a81548173ffffffffffffffffffffffffffffffffffffffff021916908373ffffffffffffffffffffffffffffffffffffffff160217905550606082015181600301908051906020019061041a929190611385565b506080820151816004019080519060200190610437929190611385565b5060a0820151816005019080519060200190610454929190611385565b50505050505050565b60606002805480602002602001604051908101604052809291908181526020016000905b8282101561058e57838290600052602060002090600402016040518060a001604052908160008201548152602001600182015481526020016002820160009054906101000a900473ffffffffffffffffffffffffffffffffffffffff1673ffffffffffffffffffffffffffffffffffffffff1673ffffffffffffffffffffffffffffffffffffffff1681526020016003820160009054906101000a900473ffffffffffffffffffffffffffffffffffffffff1673ffffffffffffffffffffffffffffffffffffffff1673ffffffffffffffffffffffffffffffffffffffff1681526020016003820160149054906101000a900460ff16151515158152505081526020019060010190610481565b50505050905090565b8073ffffffffffffffffffffffffffffffffffffffff166108fc479081150290604051600060405180830381858888f193505050501580156105dd573d6000803e3d6000fd5b5050565b600081815481106105f157600080fd5b906000526020600020906006020160009150905080600001549080600101805461061a90611f12565b80601f016020809104026020016040519081016040528092919081815260200182805461064690611f12565b80156106935780601f1061066857610100808354040283529160200191610693565b820191906000526020600020905b81548152906001019060200180831161067657829003601f168201915b5050505050908060020160009054906101000a900473ffffffffffffffffffffffffffffffffffffffff16908060030180546106ce90611f12565b80601f01602080910402602001604051908101604052809291908181526020018280546106fa90611f12565b80156107475780601f1061071c57610100808354040283529160200191610747565b820191906000526020600020905b81548152906001019060200180831161072a57829003601f168201915b50505050509080600401805461075c90611f12565b80601f016020809104026020016040519081016040528092919081815260200182805461078890611f12565b80156107d55780601f106107aa576101008083540402835291602001916107d5565b820191906000526020600020905b8154815290600101906020018083116107b857829003601f168201915b5050505050908060050180546107ea90611f12565b80601f016020809104026020016040519081016040528092919081815260200182805461081690611f12565b80156108635780601f1061083857610100808354040283529160200191610863565b820191906000526020600020905b81548152906001019060200180831161084657829003601f168201915b5050505050905086565b6002818154811061087d57600080fd5b90600052602060002090600402016000915090508060000154908060010154908060020160009054906101000a900473ffffffffffffffffffffffffffffffffffffffff16908060030160009054906101000a900473ffffffffffffffffffffffffffffffffffffffff16908060030160149054906101000a900460ff16905085565b600047905090565b60606000805480602002602001604051908101604052809291908181526020016000905b82821015610c0657838290600052602060002090600602016040518060c00160405290816000820154815260200160018201805461096990611f12565b80601f016020809104026020016040519081016040528092919081815260200182805461099590611f12565b80156109e25780601f106109b7576101008083540402835291602001916109e2565b820191906000526020600020905b8154815290600101906020018083116109c557829003601f168201915b505050505081526020016002820160009054906101000a900473ffffffffffffffffffffffffffffffffffffffff1673ffffffffffffffffffffffffffffffffffffffff1673ffffffffffffffffffffffffffffffffffffffff168152602001600382018054610a5190611f12565b80601f0160208091040260200160405190810160405280929190818152602001828054610a7d90611f12565b8015610aca5780601f10610a9f57610100808354040283529160200191610aca565b820191906000526020600020905b815481529060010190602001808311610aad57829003601f168201915b50505050508152602001600482018054610ae390611f12565b80601f0160208091040260200160405190810160405280929190818152602001828054610b0f90611f12565b8015610b5c5780601f10610b3157610100808354040283529160200191610b5c565b820191906000526020600020905b815481529060010190602001808311610b3f57829003601f168201915b50505050508152602001600582018054610b7590611f12565b80601f0160208091040260200160405190810160405280929190818152602001828054610ba190611f12565b8015610bee5780601f10610bc357610100808354040283529160200191610bee565b820191906000526020600020905b815481529060010190602001808311610bd157829003601f168201915b5050505050815250508152602001906001019061092c565b50505050905090565b60018181548110610c1f57600080fd5b90600052602060002090600602016000915090508060000154908060010154908060020160009054906101000a900473ffffffffffffffffffffffffffffffffffffffff16908060030160009054906101000a900473ffffffffffffffffffffffffffffffffffffffff1690806004018054610c9a90611f12565b80601f0160208091040260200160405190810160405280929190818152602001828054610cc690611f12565b8015610d135780601f10610ce857610100808354040283529160200191610d13565b820191906000526020600020905b815481529060010190602001808311610cf657829003601f168201915b505050505090806005018054610d2890611f12565b80601f0160208091040260200160405190810160405280929190818152602001828054610d5490611f12565b8015610da15780601f10610d7657610100808354040283529160200191610da1565b820191906000526020600020905b815481529060010190602001808311610d8457829003601f168201915b5050505050905086565b60606001805480602002602001604051908101604052809291908181526020016000905b82821015610fe557838290600052602060002090600602016040518060c001604052908160008201548152602001600182015481526020016002820160009054906101000a900473ffffffffffffffffffffffffffffffffffffffff1673ffffffffffffffffffffffffffffffffffffffff1673ffffffffffffffffffffffffffffffffffffffff1681526020016003820160009054906101000a900473ffffffffffffffffffffffffffffffffffffffff1673ffffffffffffffffffffffffffffffffffffffff1673ffffffffffffffffffffffffffffffffffffffff168152602001600482018054610ec290611f12565b80601f0160208091040260200160405190810160405280929190818152602001828054610eee90611f12565b8015610f3b5780601f10610f1057610100808354040283529160200191610f3b565b820191906000526020600020905b815481529060010190602001808311610f1e57829003601f168201915b50505050508152602001600582018054610f5490611f12565b80601f0160208091040260200160405190810160405280929190818152602001828054610f8090611f12565b8015610fcd5780601f10610fa257610100808354040283529160200191610fcd565b820191906000526020600020905b815481529060010190602001808311610fb057829003601f168201915b50505050508152505081526020019060010190610dcf565b50505050905090565b610ff661140b565b6002805490508160000181815250508381602001818152505081816040019073ffffffffffffffffffffffffffffffffffffffff16908173ffffffffffffffffffffffffffffffffffffffff168152505033816060019073ffffffffffffffffffffffffffffffffffffffff16908173ffffffffffffffffffffffffffffffffffffffff1681525050828160800190151590811515815250506002819080600181540180825580915050600190039060005260206000209060040201600090919091909150600082015181600001556020820151816001015560408201518160020160006101000a81548173ffffffffffffffffffffffffffffffffffffffff021916908373ffffffffffffffffffffffffffffffffffffffff16021790555060608201518160030160006101000a81548173ffffffffffffffffffffffffffffffffffffffff021916908373ffffffffffffffffffffffffffffffffffffffff16021790555060808201518160030160146101000a81548160ff021916908315150217905550505050505050565b61118d611468565b6001805490508160000181815250508481602001818152505081816040019073ffffffffffffffffffffffffffffffffffffffff16908173ffffffffffffffffffffffffffffffffffffffff168152505082816080018190525033816060019073ffffffffffffffffffffffffffffffffffffffff16908173ffffffffffffffffffffffffffffffffffffffff1681525050838160a001819052506001819080600181540180825580915050600190039060005260206000209060060201600090919091909150600082015181600001556020820151816001015560408201518160020160006101000a81548173ffffffffffffffffffffffffffffffffffffffff021916908373ffffffffffffffffffffffffffffffffffffffff16021790555060608201518160030160006101000a81548173ffffffffffffffffffffffffffffffffffffffff021916908373ffffffffffffffffffffffffffffffffffffffff1602179055506080820151816004019080519060200190611312929190611385565b5060a082015181600501908051906020019061132f929190611385565b5050505050505050565b6040518060c001604052806000815260200160608152602001600073ffffffffffffffffffffffffffffffffffffffff1681526020016060815260200160608152602001606081525090565b82805461139190611f12565b90600052602060002090601f0160209004810192826113b357600085556113fa565b82601f106113cc57805160ff19168380011785556113fa565b828001600101855582156113fa579182015b828111156113f95782518255916020019190600101906113de565b5b50905061140791906114ca565b5090565b6040518060a001604052806000815260200160008152602001600073ffffffffffffffffffffffffffffffffffffffff168152602001600073ffffffffffffffffffffffffffffffffffffffff1681526020016000151581525090565b6040518060c001604052806000815260200160008152602001600073ffffffffffffffffffffffffffffffffffffffff168152602001600073ffffffffffffffffffffffffffffffffffffffff16815260200160608152602001606081525090565b5b808211156114e35760008160009055506001016114cb565b5090565b60006114fa6114f584611d6d565b611d48565b90508281526020810184848401111561151657611515611fd8565b5b611521848285611ed0565b509392505050565b60008135905061153881611ff8565b92915050565b60008135905061154d8161200f565b92915050565b60008135905061156281612026565b92915050565b600082601f83011261157d5761157c611fd3565b5b813561158d8482602086016114e7565b91505092915050565b6000813590506115a58161203d565b92915050565b6000602082840312156115c1576115c0611fe2565b5b60006115cf8482850161153e565b91505092915050565b6000806000606084860312156115f1576115f0611fe2565b5b600084013567ffffffffffffffff81111561160f5761160e611fdd565b5b61161b86828701611568565b935050602084013567ffffffffffffffff81111561163c5761163b611fdd565b5b61164886828701611568565b925050604084013567ffffffffffffffff81111561166957611668611fdd565b5b61167586828701611568565b9150509250925092565b60006020828403121561169557611694611fe2565b5b60006116a384828501611596565b91505092915050565b6000806000606084860312156116c5576116c4611fe2565b5b60006116d386828701611596565b93505060206116e486828701611553565b92505060406116f586828701611529565b9150509250925092565b6000806000806080858703121561171957611718611fe2565b5b600061172787828801611596565b945050602085013567ffffffffffffffff81111561174857611747611fdd565b5b61175487828801611568565b935050604085013567ffffffffffffffff81111561177557611774611fdd565b5b61178187828801611568565b925050606061179287828801611529565b91505092959194509250565b60006117aa83836119d4565b905092915050565b60006117be8383611a64565b905092915050565b60006117d28383611b02565b60a08301905092915050565b6117e781611e76565b82525050565b6117f681611e76565b82525050565b600061180782611dce565b6118118185611e21565b93508360208202850161182385611d9e565b8060005b8581101561185f5784840389528151611840858261179e565b945061184b83611dfa565b925060208a01995050600181019050611827565b50829750879550505050505092915050565b600061187c82611dd9565b6118868185611e32565b93508360208202850161189885611dae565b8060005b858110156118d457848403895281516118b585826117b2565b94506118c083611e07565b925060208a0199505060018101905061189c565b50829750879550505050505092915050565b60006118f182611de4565b6118fb8185611e43565b935061190683611dbe565b8060005b8381101561193757815161191e88826117c6565b975061192983611e14565b92505060018101905061190a565b5085935050505092915050565b61194d81611e9a565b82525050565b61195c81611e9a565b82525050565b600061196d82611def565b6119778185611e54565b9350611987818560208601611edf565b61199081611fe7565b840191505092915050565b60006119a682611def565b6119b08185611e65565b93506119c0818560208601611edf565b6119c981611fe7565b840191505092915050565b600060c0830160008301516119ec6000860182611b6a565b5060208301516119ff6020860182611b6a565b506040830151611a1260408601826117de565b506060830151611a2560608601826117de565b5060808301518482036080860152611a3d8282611962565b91505060a083015184820360a0860152611a578282611962565b9150508091505092915050565b600060c083016000830151611a7c6000860182611b6a565b5060208301518482036020860152611a948282611962565b9150506040830151611aa960408601826117de565b5060608301518482036060860152611ac18282611962565b91505060808301518482036080860152611adb8282611962565b91505060a083015184820360a0860152611af58282611962565b9150508091505092915050565b60a082016000820151611b186000850182611b6a565b506020820151611b2b6020850182611b6a565b506040820151611b3e60408501826117de565b506060820151611b5160608501826117de565b506080820151611b646080850182611944565b50505050565b611b7381611ec6565b82525050565b611b8281611ec6565b82525050565b60006020820190508181036000830152611ba281846117fc565b905092915050565b60006020820190508181036000830152611bc48184611871565b905092915050565b60006020820190508181036000830152611be681846118e6565b905092915050565b6000602082019050611c036000830184611b79565b92915050565b600060c082019050611c1e6000830189611b79565b8181036020830152611c30818861199b565b9050611c3f60408301876117ed565b8181036060830152611c51818661199b565b90508181036080830152611c65818561199b565b905081810360a0830152611c79818461199b565b9050979650505050505050565b600060a082019050611c9b6000830188611b79565b611ca86020830187611b79565b611cb560408301866117ed565b611cc260608301856117ed565b611ccf6080830184611953565b9695505050505050565b600060c082019050611cee6000830189611b79565b611cfb6020830188611b79565b611d0860408301876117ed565b611d1560608301866117ed565b8181036080830152611d27818561199b565b905081810360a0830152611d3b818461199b565b9050979650505050505050565b6000611d52611d63565b9050611d5e8282611f44565b919050565b6000604051905090565b600067ffffffffffffffff821115611d8857611d87611fa4565b5b611d9182611fe7565b9050602081019050919050565b6000819050602082019050919050565b6000819050602082019050919050565b6000819050602082019050919050565b600081519050919050565b600081519050919050565b600081519050919050565b600081519050919050565b6000602082019050919050565b6000602082019050919050565b6000602082019050919050565b600082825260208201905092915050565b600082825260208201905092915050565b600082825260208201905092915050565b600082825260208201905092915050565b600082825260208201905092915050565b6000611e8182611ea6565b9050919050565b6000611e9382611ea6565b9050919050565b60008115159050919050565b600073ffffffffffffffffffffffffffffffffffffffff82169050919050565b6000819050919050565b82818337600083830152505050565b60005b83811015611efd578082015181840152602081019050611ee2565b83811115611f0c576000848401525b50505050565b60006002820490506001821680611f2a57607f821691505b60208210811415611f3e57611f3d611f75565b5b50919050565b611f4d82611fe7565b810181811067ffffffffffffffff82111715611f6c57611f6b611fa4565b5b80604052505050565b7f4e487b7100000000000000000000000000000000000000000000000000000000600052602260045260246000fd5b7f4e487b7100000000000000000000000000000000000000000000000000000000600052604160045260246000fd5b600080fd5b600080fd5b600080fd5b600080fd5b6000601f19601f8301169050919050565b61200181611e76565b811461200c57600080fd5b50565b61201881611e88565b811461202357600080fd5b50565b61202f81611e9a565b811461203a57600080fd5b50565b61204681611ec6565b811461205157600080fd5b5056fea2646970667358221220605de3ae071da039b2eaffe2b272234598e688188ae08c7d3508cbd31bb9f81b64736f6c63430008070033",
  "linkReferences": {},
  "deployedLinkReferences": {}
}